:020000040000FA
:100000000C9458000C9480000C9480000C94800098
:100010000C9480000C9480000C9480000C94800060
:100020000C9480000C9480000C9480000C94800050
:100030000C9480000C9480000C9480000C94800040
:100040000C9466040C9480000C94D6040C94B004B8
:100050000C9480000C9480000C9480000C94800020
:100060000C9408050C948000000000002500280076
:100070002B00040404040404040402020202020229
:10008000030303030303010204081020408001025C
:1000900004081020010204081020000000080002DB
:1000A0000100000304070000000000000000270614
:1000B00011241FBECFEFD8E0DEBFCDBF11E0A0E01E
:1000C000B1E0E6E9F6E102C005900D92A234B10775
:1000D000D9F722E0A2E4B1E001C01D92A23BB20731
:1000E000E1F710E0C8E5D0E004C02197FE010E94CE
:1000F000430BC735D107C9F70E9460060C94490B22
:100100000C94000090E0FC01E656FF4F2491FC01A6
:10011000EA57FF4F3491FC01EE58FF4FE491EE2374
:10012000C9F0222339F0233001F1A8F4213019F16C
:10013000223029F1F0E0EE0FFF1FE859FF4FA591A3
:10014000B4918FB7F894EC91611126C030953E239D
:100150003C938FBF08952730A9F02830C9F0243090
:1001600049F7809180008F7D03C0809180008F7758
:1001700080938000DFCF84B58F7784BDDBCF84B5DB
:100180008F7DFBCF8091B0008F778093B000D2CF6E
:100190008091B0008F7DF9CF3E2BDACF3FB7F89436
:1001A0008091B5019091B601A091B701B091B801CD
:1001B00026B5A89B05C02F3F19F00196A11DB11DC2
:1001C0003FBFBA2FA92F982F8827BC01CD01620FFE
:1001D000711D811D911D42E0660F771F881F991FB9
:1001E0004A95D1F7089508950895AF92BF92CF929E
:1001F000DF92EF92FF920F931F93CF93DF936C01E7
:100200007B018B01040F151FEB015E01AE18BF08C7
:10021000C017D10759F06991D601ED91FC91019079
:10022000F081E02DC6010995892B79F7C501DF9191
:10023000CF911F910F91FF90EF90DF90CF90BF90E3
:10024000AF900895FC01538D448D252F30E0842F0D
:1002500090E0821B930B541710F0CF9608950197EE
:100260000895FC01918D828D981761F0A28DAE0FDB
:10027000BF2FB11D5D968C91928D9F5F9F73928F62
:1002800090E008958FEF9FEF0895FC01918D828D8E
:10029000981731F0828DE80FF11D858D90E008955B
:1002A0008FEF9FEF0895FC01918D228D892F90E0B3
:1002B000805C9F4F821B91098F739927089589E075
:1002C00092E00E94530121E0892B09F420E0822F63
:1002D000089580E090E0892B29F00E945F01811150
:1002E0000C9400000895FC01A48DA80FB92FB11D36
:1002F000A35ABF4F2C91848D90E001968F7399275C
:10030000848FA689B7892C93A089B1898C91837039
:1003100080648C93938D848D981306C00288F38932
:10032000E02D80818F7D80830895EF92FF920F935F
:100330001F93CF93DF93EC0181E0888F9B8D8C8D91
:1003400098131AC0E889F989808185FF15C09FB785
:10035000F894EE89FF896083E889F9898081837048
:10036000806480839FBF81E090E0DF91CF911F91F7
:100370000F91FF90EF900895F62E0B8D10E00F5F18
:100380001F4F0F731127E02E8C8D8E110CC00FB6EE
:1003900007FCFACFE889F989808185FFF5CFCE0186
:1003A0000E947301F1CFEB8DEC0FFD2FF11DE35A8D
:1003B000FF4FF0829FB7F8940B8FEA89FB89808109
:1003C0008062CFCFCF93DF93EC01888D8823B9F083
:1003D000AA89BB89E889F9898C9185FD03C0808150
:1003E00086FD0DC00FB607FCF7CF8C9185FFF2CFCD
:1003F000808185FFEDCFCE010E947301E9CFDF91AF
:10040000CF91089520916301260F3327331F2132A6
:100410003105ECF42091DF01FC0190E080E0243014
:1004200069F082E00895A09163012191AC014D5BD8
:100430005E4FA40FB52FB11D2C930196861798F32C
:1004400080916301680F6093630180E0089581E00B
:1004500008951092DF0181E08093DE011092B901CE
:1004600061E082E10E94820061E083E10E948200FB
:10047000E9EBF0E080818E7F808380818D7F8083B7
:1004800088E48093B80085E48093BC000895CF93FE
:10049000DF9391E0909342018823B9F0C091B800B6
:1004A000D091BA008091BC008A7B8093BC0060E050
:1004B00082E10E94820060E083E10E9482000E944B
:1004C0002902D093BA00C093B800DF91CF9108956C
:1004D000CF92DF92EF92FF920F931F93CF93DF9310
:1004E000D091080281E0D13208F09CC0C09107028F
:1004F0000E94CE006B017C018091DF0181116CC0F4
:1005000082E08093DF0181E08093DE018FEF8093B2
:10051000DD011092DC01D093DB01A7EEB1E0EBEB43
:10052000F1E080E0D8138DC01092BA018091BA0139
:10053000CC0FC82BC093BA018091B901813009F06A
:1005400084C01092B9010E94CE006B017C018091A1
:10055000BA018093BB008091E1019091E201A091EA
:10056000E301B091E401892B8A2B8B2BA1F00E942F
:10057000CE000091E1011091E2012091E301309160
:10058000E4016C197D098E099F09061717072807D2
:10059000390708F442C08091BC0083FDD8CF85ECB8
:1005A0008093BC000E94CE006B017C018091DF0132
:1005B000823009F44CC08091DD018F3F09F469C09D
:1005C0008091DD01803209F466C08091DD018033C5
:1005D00009F463C084E026C08091E1019091E201BA
:1005E000A091E301B091E401892B8A2B8B2B09F4B4
:1005F00083CF0E94CE000091E1011091E201209191
:10060000E3013091E4016C197D098E099F090617F9
:1006100017072807390708F06FCF8091E0010E9483
:10062000470285E01092E601109208021092E5015F
:10063000DF91CF911F910F91FF90EF90DF90CF90BE
:1006400008959D9191938F5F6DCF85EEA9CF809195
:10065000E1019091E201A091E301B091E401892BC5
:100660008A2B8B2B09F4A2CF0E94CE000091E101CE
:100670001091E2012091E3013091E4016C197D09B0
:100680008E099F09061717072807390708F08ECF2C
:10069000C4CF80E0C7CF82E0C5CF83E0C3CF089549
:1006A000E0918B0180918A01E81730F4F0E0E45783
:1006B000FE4F808190E008958FEF9FEF0895909115
:1006C0008B0180918A012FEF3FEF981748F4E92FB3
:1006D000F0E0E457FE4F208130E09F5F90938B0164
:1006E000C901089580918A0190918B01891B990B12
:1006F0000895CF92DF92EF92FF920F931F93CF93C3
:10070000DF937C01CB018A012091E501222389F04E
:10071000EB016B01C40ED51ECC15DD0569F06991A6
:10072000D701ED91FC910190F081E02DC701099571
:10073000F3CF642F0E940202C801DF91CF911F9175
:100740000F91FF90EF90DF90CF900895CF93DF93BC
:100750001F92CDB7DEB769832091E5012223F9F01E
:1007600020910802203258F021E030E0FC01338370
:10077000228390E080E00F90DF91CF9108958091E7
:10078000E601E82FF0E0E951FE4F998190838F5FF9
:100790008093E6018093080281E090E0ECCF61E075
:1007A000CE0101960E940202F7CF682F86EA92E0FE
:1007B0000C94A60390E080E00895FC0101900020D5
:1007C000E9F73197AF01481B590BBC0189E092E072
:1007D0000C94F5008F929F92AF92BF920F931F934C
:1007E000CF93DF93CDB7DEB7A1970FB6F894DEBFF6
:1007F0000FBECDBF19A2423008F44AE08E010F5D52
:100800001F4F842E912CB12CA12CA50194010E9484
:10081000210BE62FB901CA01EA30F4F4E05DD801FA
:10082000EE938D01232B242B252B79F790E080E08C
:10083000109719F0CD010E94DD03A1960FB6F89430
:10084000DEBF0FBECDBFDF91CF911F910F91BF9043
:10085000AF909F908F900895E95CE1CF85ED8093F4
:10086000BC008091E1019091E201A091E301B0917F
:10087000E4010796A11DB11D23E0B695A7959795B4
:1008800087952A95D1F72091BC0024FD03C01092D2
:10089000DF0108954091E1015091E2016091E3018F
:1008A0007091E401452B462B472B69F30097A10576
:1008B000B10541F02AE22A95F1F700C00197A1099C
:1008C000B109E1CF8091E0010C9447021F920F9291
:1008D0000FB60F9211242F933F938F939F93AF9353
:1008E000BF938091B1019091B201A091B301B091F9
:1008F000B4013091B00123E0230F2D3758F5019654
:10090000A11DB11D2093B0018093B1019093B2015C
:10091000A093B301B093B4018091B5019091B60159
:10092000A091B701B091B8010196A11DB11D8093AE
:10093000B5019093B601A093B701B093B801BF91F0
:10094000AF919F918F913F912F910F900FBE0F907C
:100950001F90189526E8230F0296A11DB11DD2CF36
:100960001F920F920FB60F9211242F933F934F9324
:100970005F936F937F938F939F93AF93BF93EF9307
:10098000FF9389E092E00E947301FF91EF91BF9184
:10099000AF919F918F917F916F915F914F913F9117
:1009A0002F910F900FBE0F901F9018951F920F92CE
:1009B0000FB60F9211242F938F939F93EF93FF9372
:1009C000E0911902F0911A028081E0911F02F091EA
:1009D000200282FD1BC09081809122028F5F8F7365
:1009E00020912302821741F0E0912202F0E0E75FBC
:1009F000FD4F958F80932202FF91EF919F918F91F0
:100A00002F910F900FBE0F901F9018958081F4CFFB
:100A10001F920F920FB60F9211242F933F934F9373
:100A20005F936F937F938F939F93AF93BF93EF9356
:100A3000FF938091B900887F803609F44AC0F0F5B1
:100A4000883209F4A7C018F5803109F49BC0B8F4C6
:100A5000882309F4F9C0883009F494C0FF91EF911C
:100A6000BF91AF919F918F917F916F915F914F91C6
:100A70003F912F910F900FBE0F901F9018958831C6
:100A800009F488C0803251F78093DD0114C08034AE
:100A900009F49DC040F48033B9F38833F9F68093AC
:100AA000DD0185ECB0C0803509F485C0883509F4D6
:100AB00096C0883499F60E942E04D0CF883909F464
:100AC0008CC038F5883729F050F4883611F080371B
:100AD00029F683E08093DF011092850157C08838A2
:100AE00009F47BC0803919F0803809F0B7CF8091C4
:100AF0008501803208F071C0E091850181E08E0FA0
:100B0000809385018091BB00F0E0EB59FE4F80831C
:100B10003DC0803B39F0E0F4803A09F479C0883A6E
:100B200009F09CCF84E08093DF0110926401109261
:100B30006301E0918801F091890109958091630139
:100B400081110FC081E0809363011092430109C0BD
:100B5000803C09F4A6CF883C09F4A3CF883B09F078
:100B60007DCFE091640181E08E0F80936401F0E01D
:100B7000ED5BFE4F80818093BB009091640180917A
:100B8000630129C08091BA018093BB0085EC8093FA
:100B9000BC0064CF9091DC018091DB01981758F57F
:100BA000E091DC0181E08E0F8093DC01F0E0E55400
:100BB000FE4F8081E9CFE091DC0181E08E0F8093D0
:100BC000DC018091BB00F0E0E554FE4F8083909102
:100BD000DC018091DB019817C8F285E8D8CFE0915D
:100BE000DC0181E08E0F8093DC018091BB00F0E09E
:100BF000E554FE4F80838091DE0181115CCF81E05E
:100C00008093B90184EA8093BC001092DF0126CF63
:100C100085EC8093BC001092DF01809185018032C9
:100C200030F4E0918501F0E0EB59FE4F10826091C5
:100C3000850170E0E0918601F091870185E691E001
:100C40000995109285010ACF1092DD0134CFE9E0B9
:100C5000F2E01382128288EE93E0A0E0B0E0848399
:100C60009583A683B78324E031E03183208325EC8C
:100C700030E03587248724EC30E03787268720EC66
:100C800030E0318B208B21EC30E0338B228B22EC57
:100C900030E0358B248B26EC30E0378B268B118EA1
:100CA000128E138E148EE6EAF2E01382128284838F
:100CB0009583A683B78386E191E09183808308952D
:100CC000789484B5826084BD84B5816084BD85B527
:100CD000826085BD85B5816085BD80916E00816033
:100CE00080936E00109281008091810082608093D9
:100CF00081008091810081608093810080918000DB
:100D00008160809380008091B10084608093B10005
:100D10008091B00081608093B00080917A008460FF
:100D200080937A0080917A00826080937A0080912B
:100D30007A00816080937A0080917A008068809345
:100D40007A001092C1008CE08093B80010928B0161
:100D500010928A011092E601109208020E94290264
:100D600083EF90E0909389018093880184EF90E075
:100D700090938701809386010E94CE004B015C0115
:100D80003AEFC32ED12CE12CF12C0E94CE00681931
:100D900079098A099B09683E734081059105A8F38A
:100DA00021E0C21AD108E108F10888EE880E83E03C
:100DB000981EA11CB11CC114D104E104F10429F74F
:100DC00011E01093E50188E6809307028BE690E03E
:100DD0000E94D50390E080E00E94D5030E94680243
:100DE0001093E5011092E601109208028AE190E06A
:100DF0000E94D50383E090E00E94D5030E94680220
:100E00001093E5011092E601109208028BE190E048
:100E10000E94D50388E090E00E94D5030E946802FA
:100E2000E0911902F0911A0282E08083E0911502AC
:100E3000F09116021082E0911702F09118028FECE7
:100E4000808310922102E0911D02F0911E0286E043
:100E50008083E0911B02F0911C028081806180837D
:100E6000E0911B02F0911C02808188608083E091F8
:100E70001B02F0911C02808180688083E0911B023C
:100E8000F0911C0280818F7D808385EE382E95EC59
:100E9000892E00E010E0BB24B394AA24AA9425E094
:100EA000922E0E94CE006B017C018091DF018111A6
:100EB00061C0B092DF01B092DE01A092DD0110921C
:100EC000DC019092DB01B092BA018091BA01806D91
:100ED0008093BA018091B901813009F0BDC01092B0
:100EE000B9010E94CE006B017C018091BA01809310
:100EF000BB008091E1019091E201A091E301B091EA
:100F0000E401892B8A2B8B2BA1F00E94CE0040900C
:100F1000E1015090E2016090E3017090E4016C19EE
:100F20007D098E099F09461657066806790608F45A
:100F300042C08091BC0083FDD8CF8092BC000E944B
:100F4000CE006B017C018091DF01813009F487C004
:100F50008091DC01863008F0A4C08091DC01ABEB0D
:100F6000B1E0ECE8F1E090E0981751F12D91219378
:100F70009F5FFACF8091E1019091E201A091E3019E
:100F8000B091E401892B8A2B8B2B09F48ECF0E9420
:100F9000CE004090E1015090E2016090E30170903A
:100FA000E4016C197D098E099F09461657066806EB
:100FB000790608F07ACF8091E0010E94470280E034
:100FC00010928B0180938A0186EA92E00E945F036F
:100FD000F82E86EA92E00E945F0320E0822B9F2990
:100FE000BC01990F880B990B0E94FA0920E030E0B0
:100FF00043E852E40E9457096093AC017093AD013D
:101000008093AE019093AF0184E291E00E94DD03F2
:10101000C090AC01D090AD01E090AE01F090AF0176
:10102000A7019601C701B6010E941C0B8823D9F1C4
:1010300083E391E00E94DD038FE391E00E94DD03F2
:101040000115110509F42DCF0E945F01882309F4D1
:1010500028CF0E94000025CF3092BC0070CF809135
:10106000E1019091E201A091E301B091E401892BAB
:101070008A2B8B2B09F467CF0E94CE004090E101B0
:101080005090E2016090E3017090E4016C197D09D9
:101090008E099F09461657066806790608F053CF51
:1010A0008ACF86E05CCF26013701E89477F82FEFEE
:1010B0003FEF4FE75FE7C301B2010E941C0B8111B4
:1010C0000DC02FEF3FEF4FE75FE7C301B2010E9472
:1010D000520918161CF487E391E0ACCF2FEF3FEFD5
:1010E0004FE75FE4C701B6010E94AA0A18161CF474
:1010F0008BE391E09FCF2FEF3FEF4FE75FECC7010E
:10110000B6010E94520987FDF3CF20E030E0A9012B
:10111000C701B6010E94520987FF09C06DE289E04C
:1011200092E00E949501F7FAF094F7F8F0942AE023
:1011300037ED43EA5BE3C701B6010E94E6082B01E5
:101140003C010E94C9096B017C010E94F8099B01C6
:10115000AC01C301B2010E94E5082B013C014AE049
:10116000C701B6010E94EA036EE289E092E00E94A4
:10117000950120E030E040E251E4C301B2010E9459
:10118000AF0A2B013C010E94C9096B01F12CE12C33
:101190004AE0C701B6010E94EA03C701B6010E94F6
:1011A000F8099B01AC01C301B2010E94E50820E0EF
:1011B00030E040E251E40E94AF0A0E94C90990E089
:1011C00080E04AE00E94EA0337CF5058BB27AA27A5
:1011D0000E94FD080C94700A0E94620A38F00E9476
:1011E000690A20F039F49F3F19F426F40C945F0A41
:1011F0000EF4E095E7FB0C94590AE92F0E94810A4E
:1012000058F3BA17620773078407950720F079F43B
:10121000A6F50C94A30A0EF4E0950B2EBA2FA02D80
:101220000B01B90190010C01CA01A0011124FF2793
:10123000591B99F0593F50F4503E68F11A16F0408E
:10124000A22F232F342F4427585FF3CF469537958D
:101250002795A795F0405395C9F77EF41F16BA0B52
:10126000620B730B840BBAF09150A1F0FF0FBB1F00
:10127000661F771F881FC2F70EC0BA0F621F731F49
:10128000841F48F4879577956795B795F7959E3FA6
:1012900008F0B0CF9395880F08F09927EE0F979537
:1012A000879508950E94350A08F481E008950E9408
:1012B0006B090C94700A0E94690A58F00E94620A35
:1012C00040F029F45F3F29F00C94590A51110C9415
:1012D000A40A0C945F0A0E94810A68F39923B1F36F
:1012E000552391F3951B550BBB27AA27621773074C
:1012F000840738F09F5F5F4F220F331F441FAA1FE0
:10130000A9F335D00E2E3AF0E0E832D0915050409B
:10131000E695001CCAF72BD0FE2F29D0660F771F49
:10132000881FBB1F261737074807AB07B0E809F02F
:10133000BB0B802DBF01FF2793585F4F3AF09E3FB4
:10134000510578F00C94590A0C94A40A5F3FE4F319
:10135000983ED4F3869577956795B795F7959F5FF7
:10136000C9F7880F911D9695879597F90895E1E043
:10137000660F771F881FBB1F621773078407BA07A2
:1013800020F0621B730B840BBA0BEE1F88F7E095FD
:1013900008950E94890A88F09F5798F0B92F9927DD
:1013A000B751B0F0E1F0660F771F881F991F1AF050
:1013B000BA95C9F714C0B13091F00E94A30AB1E008
:1013C00008950C94A30A672F782F8827B85F39F007
:1013D000B93FCCF3869577956795B395D9F73EF4E9
:1013E00090958095709561957F4F8F4F9F4F089591
:1013F000E89409C097FB3EF49095809570956195AF
:101400007F4F8F4F9F4F9923A9F0F92F96E9BB2764
:101410009395F695879577956795B795F111F8CFE0
:10142000FAF4BB0F11F460FF1BC06F5F7F4F8F4F4B
:101430009F4F16C0882311F096E911C0772321F041
:101440009EE8872F762F05C0662371F096E8862FD9
:1014500070E060E02AF09A95660F771F881FDAF730
:10146000880F9695879597F90895990F0008550F5D
:10147000AA0BE0E8FEEF16161706E807F907C0F01A
:1014800012161306E407F50798F0621B730B840B22
:10149000950B39F40A2661F0232B242B252B21F4FC
:1014A00008950A2609F4A140A6958FEF811D811D9C
:1014B000089597F99F6780E870E060E008959FEFD6
:1014C00080EC089500240A941616170618060906DB
:1014D000089500240A9412161306140605060895AA
:1014E000092E0394000C11F4882352F0BB0F40F432
:1014F000BF2B11F460FF04C06F5F7F4F8F4F9F4F72
:10150000089557FD9058440F551F59F05F3F71F0F3
:101510004795880F97FB991F61F09F3F79F087955A
:101520000895121613061406551FF2CF4695F1DFE3
:1015300008C0161617061806991FF1CF8695710573
:10154000610508940895E894BB2766277727CB01A7
:1015500097F908950E94350A08F48FEF08950E94C4
:10156000C20A0C94700A0E94620A38F00E94690A4A
:1015700020F0952311F00C94590A0C945F0A112461
:101580000C94A40A0E94810A70F3959FC1F3950FF1
:1015900050E0551F629FF001729FBB27F00DB11DF7
:1015A000639FAA27F00DB11DAA1F649F6627B00D87
:1015B000A11D661F829F2227B00DA11D621F739F70
:1015C000B00DA11D621F839FA00D611D221F749F7E
:1015D0003327A00D611D231F849F600D211D822FC5
:1015E000762F6A2F11249F5750409AF0F1F08823EC
:1015F0004AF0EE0FFF1FBB1F661F771F881F915019
:101600005040A9F79E3F510580F00C94590A0C9464
:10161000A40A5F3FE4F3983ED4F3869577956795E7
:10162000B795F795E7959F5FC1F7FE2B880F911D42
:101630009695879597F908950E94350A880B990B1E
:101640000895A1E21A2EAA1BBB1BFD010DC0AA1F03
:10165000BB1FEE1FFF1FA217B307E407F50720F01B
:10166000A21BB30BE40BF50B661F771F881F991F96
:101670001A9469F760957095809590959B01AC01DF
:10168000BD01CF010895EE0FFF1F0590F491E02DED
:101690000994F894FFCF000000009501F5002201A5
:1016A000E20153013101450100000000A603790366
:1016B000DA034F0372035F0350034779726F5828B0
:1016C0006465672F73293A20006E616E00696E664B
:0816D000006F7666000D0A00B0
:107E0000112484B714BE81FFF0D085E080938100F7
:107E100082E08093C00088E18093C10086E0809377
:107E2000C20080E18093C4008EE0C9D0259A86E02C
:107E300020E33CEF91E0309385002093840096BBD3
:107E4000B09BFECF1D9AA8958150A9F7CC24DD24C4
:107E500088248394B5E0AB2EA1E19A2EF3E0BF2EE7
:107E6000A2D0813461F49FD0082FAFD0023811F036
:107E7000013811F484E001C083E08DD089C08234E0
:107E800011F484E103C0853419F485E0A6D080C0E4
:107E9000853579F488D0E82EFF2485D0082F10E0AE
:107EA000102F00270E291F29000F111F8ED06801E7
:107EB0006FC0863521F484E090D080E0DECF843638
:107EC00009F040C070D06FD0082F6DD080E0C81688
:107ED00080E7D80618F4F601B7BEE895C0E0D1E017
:107EE00062D089930C17E1F7F0E0CF16F0E7DF06D8
:107EF00018F0F601B7BEE89568D007B600FCFDCFD4
:107F0000A601A0E0B1E02C9130E011968C91119780
:107F100090E0982F8827822B932B1296FA010C0160
:107F200087BEE89511244E5F5F4FF1E0A038BF0790
:107F300051F7F601A7BEE89507B600FCFDCF97BE46
:107F4000E89526C08437B1F42ED02DD0F82E2BD052
:107F50003CD0F601EF2C8F010F5F1F4F84911BD097
:107F6000EA94F801C1F70894C11CD11CFA94CF0C13
:107F7000D11C0EC0853739F428D08EE10CD085E9AC
:107F80000AD08FE07ACF813511F488E018D01DD067
:107F900080E101D065CF982F8091C00085FFFCCF94
:107FA0009093C60008958091C00087FFFCCF809118
:107FB000C00084FD01C0A8958091C6000895E0E648
:107FC000F0E098E1908380830895EDDF803219F02E
:107FD00088E0F5DFFFCF84E1DECF1F93182FE3DFCA
:107FE0001150E9F7F2DF1F91089580E0E8DFEE27F6
:047FF000FF270994CA
:027FFE00040479
:00000001FF
